:100000000C9480000C94A8000C94A8000C94A800F8
:100010000C94A8000C94A8000C94A8000C94A800C0
:100020000C94A8000C94A8000C94A8000C94A800B0
:100030000C94A8000C94A8000C94A8000C94A800A0
:100040000C942D040C94A8000C94A8000C94A80007
:100050000C94A8000C94A8000C94A8000C94A80080
:100060000C94A8000C94A8004E414E494E49545996
:10007000494E46CDCCCC3D0AD7233C17B7D1387773
:10008000CC2B329595E6241FB14F0A000020410089
:1000900000C84200401C4620BCBE4CCA1B0E5AAED3
:1000A000C59D7400000000240027002A0000000005
:1000B00000250028002B0000000000230026002956
:1000C0000004040404040404040202020202020301
:1000D000030303030301020408102040800102040B
:1000E000081020010204081020000000080002018E
:1000F00000000304070000000000000000009D064F
:1001000011241FBECFEFD8E0DEBFCDBF21E0A4E4B5
:10011000B1E001C01D92AF36B207E1F711E0A0E0F7
:10012000B1E0E2EEF5E102C005900D92A434B10712
:10013000D9F710E0C0E8D0E004C02197FE010E948A
:10014000E90ACF37D107C9F70E9477040C94EF0A68
:100150000C940000833081F028F4813099F08230D3
:10016000A9F008958730A9F08830C9F08430B1F43F
:10017000809180008F7D03C0809180008F77809375
:100180008000089584B58F7784BD089584B58F7DF0
:10019000FBCF8091B0008F778093B000089580915D
:1001A000B0008F7DF9CFCF93DF93282F30E0F90196
:1001B000E751FF4F8491F901EB52FF4FD491F901C0
:1001C000EF53FF4FC491CC23A1F081110E94AA00EC
:1001D000EC2FF0E0EE0FFF1FE954FF4FA591B49113
:1001E000EC91ED2381E090E009F480E0DF91CF9184
:1001F000089580E090E0FACF1F93CF93DF93282FEC
:1002000030E0F901E751FF4F8491F901EB52FF4FC4
:10021000D491F901EF53FF4FC491CC23A9F0162FCD
:1002200081110E94AA00EC2FF0E0EE0FFF1FE355B2
:10023000FF4FA591B4918FB7F894EC91111108C0BC
:10024000D095DE23DC938FBFDF91CF911F9108956E
:10025000DE2BF8CFCF93DF9390E0FC01EB52FF4F02
:1002600024918F539F4FFC0184918823D1F090E01B
:10027000880F991FFC01ED55FF4FA591B491FC012A
:10028000E355FF4FC591D491623071F49FB7F89454
:100290003C91822F809583238C93E8812E2B288399
:1002A0009FBFDF91CF9108958FB7F894EC912E2BDB
:1002B0002C938FBFF6CF3FB7F89480915101909166
:1002C0005201A0915301B091540126B5A89B05C0DD
:1002D0002F3F19F00196A11DB11D3FBFBA2FA92FC5
:1002E000982F8827BC01CD01620F711D811D911DC2
:1002F00042E0660F771F881F991F4A95D1F708952E
:10030000AF92BF92CF92DF92EF92FF920F931F9323
:10031000CF93DF936C017B018B01040F151FEB0161
:100320005E01AE18BF08C017D10759F06991D60118
:10033000ED91FC910190F081E02DC6010995892B8A
:1003400079F7C501DF91CF911F910F91FF90EF9049
:10035000DF90CF90BF90AF900895089590E080E037
:100360000895109244011092450110924601109296
:10037000470110924A0110924901109248011092CF
:100380004B010895FC0101900020E9F73197AF017E
:10039000481B590BBC0185E591E00C9480018F92BC
:1003A0009F92AF92BF920F931F93CF93DF93CDB7DE
:1003B000DEB7A1970FB6F894DEBF0FBECDBF19A26E
:1003C000423008F44AE08E010F5D1F4F842E912CBD
:1003D000B12CA12CA50194010E94C70AE62FB901F6
:1003E000CA01EA30F4F4E05DD801EE938D01232BCD
:1003F000242B252B79F790E080E0109719F0CD01A0
:100400000E94C201A1960FB6F894DEBF0FBECDBF09
:10041000DF91CF911F910F91BF90AF909F908F90E0
:100420000895E95CE1CFCF93DF93EC0160E08E812A
:100430000E94FC0061E08E810E94FC0060E08E81E1
:100440000E94FC008BE891E00197F1F7DF91CF91DA
:100450000895CF92DF92EF92FF920F931F93CF9365
:10046000DF936C017C0187E0E80EF11CD0E0C0E076
:10047000062F10E0B8010C2E02C0759567950A94FE
:10048000E2F76170F70181917F010E94FC002196E3
:10049000C430D10579F7C601DF91CF911F910F913B
:1004A000FF90EF90DF90CF900C941302CF92DF92E9
:1004B000EF92FF920F931F93CF93DF93EC01F62EF1
:1004C000642F8C810E94FC008D818F3F19F060E0C9
:1004D0000E94FC000F2D10E08F8584FF25C06E0167
:1004E00087E0C80ED11CF12CE12CB8010E2C02C003
:1004F000759567950A94E2F76170F60181916F0135
:100500000E94FC00FFEFEF1AFF0A88E0E816F104F2
:1005100061F7CE01DF91CF911F910F91FF90EF9086
:10052000DF90CF900C941302B80184E07595679525
:100530008A95E1F7CE010E9429026F2DCE01DF914D
:10054000CF911F910F91FF90EF90DF90CF900C947F
:10055000290240E0682F85E591E00C94560281E085
:100560000E94A9028BE39FE10197F1F70895CF93D1
:10057000DF93823029F49091640198609093640134
:10058000809368011092690180E480936A0180E1A0
:1005900080936B0180E580936C0161E0809159014B
:1005A0000E942A0180915A018F3F19F061E00E9458
:1005B0002A0161E080915B010E942A01C5E5D1E03A
:1005C0009E01255531408091640184FD0BC084E07B
:1005D00090E021962817390744F461E08E810E944B
:1005E0002A01EECF88E090E0F4CF8BE39DE0019705
:1005F000F1F760E0809159010E94FC0060E0809179
:100600005B010E94FC0080915A018F3F19F060E06D
:100610000E94FC008091640184FD34C063E085E5A4
:1006200091E00E942902CBE4D6E4CE010197F1F7D4
:1006300063E085E591E00E9429022197F1F763E0EC
:1006400085E591E00E94290283E592E00197F1F7A8
:1006500062E085E591E00E94290280916401806258
:100660000E94A90284E0809365018CE00E94A902A7
:100670000E94AF0282E08093660186E0DF91CF9115
:100680000C94A90280620E94A9028BE496E401976F
:10069000F1F78091640180620E94A90283E592E0F3
:1006A0000197F1F78091640180620E94A902D5CF81
:1006B0008F929F92AF92BF92CF92DF92EF92FF9272
:1006C000809148018D3209F447C05CF48B3229F1E6
:1006D000FF90EF90DF90CF90BF90AF909F908F9062
:1006E00008958F3209F44FC0883791F7609149011E
:1006F00070914A01072E000C880B990B0E94370855
:100700009B01AC01609144017091450180914601CB
:10071000909147010E94960816C06091490170911E
:100720004A01072E000C880B990B0E9437089B0189
:10073000AC01609144017091450180914601909116
:1007400047010E94A9096093440170934501809379
:10075000460190934701BCCF6091490170914A01D5
:10076000072E000C880B990B0E9437089B01AC01E7
:10077000609144017091450180914601909147013B
:100780000E94A809E0CF6091490170914A0161156A
:10079000710599F0072E000C880B990B0E94370801
:1007A0009B01AC016091440170914501809146012B
:1007B000909147010E94150AC6CFE0916801E2308E
:1007C000D8F5E150F0E0EB5AFE4F848980680E9432
:1007D000A9028CE191E00E94C2010E945B014B01E1
:1007E0005C0180EDC82E87E0D82EE12CF12C0E9410
:1007F0005B01681979098A099B09683E7340810584
:100800009105A8F321E0C21AD108E108F10888EEA9
:10081000880E83E0981EA11CB11CC114D104E10410
:10082000F10429F7FF90EF90DF90CF90BF90AF9049
:100830009F908F900C94B101E1E0C4CF41E00E9401
:10084000560281E090E0089541E0682F85E591E04F
:100850000E94560281E090E008951F920F920FB619
:100860000F9211242F933F938F939F93AF93BF9336
:1008700080914D0190914E01A0914F01B091500196
:1008800030914C0123E0230F2D3758F50196A11D1F
:10089000B11D20934C0180934D0190934E01A09384
:1008A0004F01B09350018091510190915201A0915C
:1008B0005301B09154010196A11DB11D80935101C6
:1008C00090935201A0935301B0935401BF91AF9103
:1008D0009F918F913F912F910F900FBE0F901F907E
:1008E000189526E8230F0296A11DB11DD2CFCF93F4
:1008F000DF931F92CDB7DEB7789484B5826084BD54
:1009000084B5816084BD85B5826085BD85B5816013
:1009100085BD80916E00816080936E001092810091
:10092000809181008260809381008091810081604C
:10093000809381008091800081608093800080910D
:10094000B10084608093B1008091B0008160809399
:10095000B00080917A00846080937A0080917A0060
:10096000826080937A0080917A00816080937A001F
:1009700080917A00806880937A001092C10061E0D3
:1009800080E00E942A0161E081E00E942A0161E08A
:1009900082E00E942A0161E083E00E942A0161E076
:1009A00080E00E94FC0061E081E00E94FC0061E0C8
:1009B00082E00E94FC0061E083E00E94FC0062E0B3
:1009C00084E00E942A0162E085E00E942A0162E040
:1009D00086E00E942A0162E087E00E942A0182E00C
:1009E0000E94B70283E291E00E94C20120E0A22EA1
:1009F00020E0B22E10E000E0D02E60E0802F0E94B8
:100A0000FC00F12CE12C94E0C92ECE0C8C2D0E9420
:100A1000D30030E020E0892B31F48C2D0E94D300EC
:100A200021E030E0F8CF21303105B1F461E08D2DC7
:100A30000E94FC00F801EE0FFF1FEE0FFF1FE45FA6
:100A4000FE4FEE0DFF1D8081811118C0A114B1046D
:100A500089F20E940000CECF8FEFE81AF80A84E0F6
:100A6000E816F10481F661E08D2D0E94FC000F5F15
:100A70001F4F0430110509F0BFCFE8CF8983282F1D
:100A8000082E000C330B205331092A303105C0F5F4
:100A900090914B0191113BC00E94AF02CE01019693
:100AA0000E94BB060E94870A6B0170934A01609303
:100AB0004901E1E0809168018111E0E0E195F0E019
:100AC000EB5AFE4F848980680E94A9020D2C000C0D
:100AD000EE08FF084AE0C701B601F7FE0BC08DE241
:100AE0000E94240466277727CB016C197D098E09A3
:100AF0009F094AE00E94CF0181E080934B01A6CF7D
:100B0000833451F50E94AF020E94B1019FCF0E9431
:100B100024048091490190914A012AE0289FB00164
:100B2000299F700D1124072E000C880B990B0E9431
:100B300037086B017C01CE0101960E94BB069B0128
:100B4000AC01C701B6010E94A9090E94870A7093EF
:100B50004A01609349017ACF90914B018D3309F09E
:100B6000BFC0992309F472CF80914801882309F40A
:100B70006DCF0E945803E0916801E23008F5E15022
:100B8000F0E0EB5AFE4F848980680E94A90284E35A
:100B900091E00E94C201C0904401D0904501E090D4
:100BA0004601F0904701A7019601C701B6010E94D6
:100BB000C20A882339F087E391E00E94C201A4CFE2
:100BC000E1E0DECF26013701E89477F82FEF3FEF21
:100BD0004FE75FE7C301B2010E94C20A81110DC055
:100BE0002FEF3FEF4FE75FE7C301B2010E943008EC
:100BF00018161CF48BE391E0E0CF2FEF3FEF4FE7A7
:100C00005FE4C701B6010E94BD0A18161CF48FE309
:100C100091E0D3CF2FEF3FEF4FE75FECC701B60175
:100C20000E94300887FDF3CF20E030E0A901C70122
:100C3000B6010E94300887FF07C08DE20E9424049D
:100C4000F7FAF094F7F8F0942AE037ED43EA5BE323
:100C5000C701B6010E94A9092B013C010E948E0A1E
:100C60006B017C010E9435089B01AC01C301B201FC
:100C70000E94A8092B013C014AE0C701B6010E946D
:100C8000CF018EE20E94240420E030E040E251E4F3
:100C9000C301B2010E9496082B013C010E948E0AFA
:100CA0006B01F12CE12C4AE0C701B6010E94CF0193
:100CB000C701B6010E9435089B01AC01C301B20116
:100CC0000E94A80920E030E040E251E40E9496082A
:100CD0000E948E0A90E080E04AE00E94CF0114CF8B
:100CE000992309F4B3CE80914801811123C060910A
:100CF000490170914A01072E000C880B990B0E9444
:100D000037086093440170934501809346019093A6
:100D1000470182E391E00E94C20189810E9424047C
:100D200082E391E00E94C201898180934801109280
:100D30004B018CCE0E945803ECCFE5E5F1E0138225
:100D4000128284E091E09183808388E084838FEF36
:100D5000858389E086838AE087838BE080878CE0C7
:100D600081878DE0828713861486158616861786FE
:100D700081E00C94B702662777270C94BF06B0E099
:100D8000A0E0E5ECF6E00C9468095C017B016115DC
:100D9000710519F0DB018D939C9385010F5F1F4F47
:100DA000F501D0818D2F90E00E940F086C01892BF6
:100DB000B9F5DD32B9F50F5F1F4FD5011196DC9102
:100DC000C1E05801F1E0AF1AB10843E050E060E73C
:100DD00070E0C5010E941808892B69F5680182E05E
:100DE000C80ED11C45E050E06BE670E0C6010E94E1
:100DF0001808892B21F4680197E0C90ED11CE11471
:100E0000F10419F0D701CD92DC9260E070E080E847
:100E10009FEFC111FFC060E070E080E89FE7FAC07B
:100E20005801BBCFDB3229F485010E5F1F4FF5015E
:100E3000D181C0E0C6CF43E050E068E670E0C50174
:100E40000E941808892BE9F0F80110E000E020E08A
:100E500030E0A9015F01B0ED8B2E8D0E89E0881581
:100E6000C8F19C2E689491F88C2F8870C2FF16C030
:100E7000811102C00F5F1F4F3196D501DC91C92D42
:100E8000E9CFE114F10429F00E5F1F4FF701118340
:100E9000008360E070E080EC9FE7BCC0882311F025
:100EA00001501109A5E0B0E00E9457099B01AC0177
:100EB000220F331F441F551F280D311D411D511D89
:100EC000283999E93907490799E15907A8F2C66015
:100ED0009C2ED2CFAEEF8A1206C0C3FD3CC09C2E22
:100EE000689493F8C9CFDF7DD534A9F580818D3220
:100EF00039F4C061DF011296818162E070E006C0C2
:100F0000DF018B32C1F3119661E070E080535D0127
:100F1000A61AB70A8A30F8F4E0E8CE16ECE0DE064E
:100F20005CF4B601660F771F660F771FC60ED71EDB
:100F3000CC0CDD1CC80ED11C5D01FFEFAF1ABF0A3F
:100F40008C9180538A30A8F1C4FF03C0D194C1941E
:100F5000D1080C0D1D1DC1FF09C0E114F10431F0D1
:100F600081E0A81AB108D701AD92BC92CA01B901BB
:100F70000E943508C370C33009F490584B015C01DE
:100F800020E030E0A9010E943008882309F440C025
:100F9000CFE9D0E017FF05C0119501951109C7E809
:100FA000D0E06E01B8E1CB1AD10880E2E82EF12C36
:100FB0000FC0D501B1CFFE012591359145915491D6
:100FC0000E191F09C501B4010E9496084B015C016E
:100FD000D501C4010E151F0574F72497F594E79405
:100FE000CC16DD06A9F78A2F880F8B2F881F8F3F1D
:100FF00049F020E030E0A901C501B4010E943008A9
:10100000811106C082E290E090936E0180936D01A1
:10101000C501B401CDB7DEB7ECE00C9484099111A1
:101020000C940309803219F089508550C8F708954F
:10103000FB01DC014150504088F08D9181341CF05F
:101040008B350CF4805E659161341CF06B350CF4CB
:10105000605E861B611171F3990B0895881BFCCFAC
:101060000E94720808F481E00895E89409C097FB93
:101070003EF490958095709561957F4F8F4F9F4F6F
:101080009923A9F0F92F96E9BB279395F6958795B3
:1010900077956795B795F111F8CFFAF4BB0F11F476
:1010A00060FF1BC06F5F7F4F8F4F9F4F16C088231D
:1010B00011F096E911C0772321F09EE8872F762F53
:1010C00005C0662371F096E8862F70E060E02AF094
:1010D0009A95660F771F881FDAF7880F9695879580
:1010E00097F90895990F0008550FAA0BE0E8FEEF55
:1010F00016161706E807F907C0F012161306E407DC
:10110000F50798F0621B730B840B950B39F40A26D4
:1011100061F0232B242B252B21F408950A2609F4B2
:10112000A140A6958FEF811D811D08950E94A908F9
:101130000C941D090E940F0938F00E94160920F036
:10114000952311F00C9406090C940C0911240C94AD
:1011500051090E942E0970F3959FC1F3950F50E03D
:10116000551F629FF001729FBB27F00DB11D639F59
:10117000AA27F00DB11DAA1F649F6627B00DA11DFF
:10118000661F829F2227B00DA11D621F739FB00DA5
:10119000A11D621F839FA00D611D221F749F332715
:1011A000A00D611D231F849F600D211D822F762FAE
:1011B0006A2F11249F5750409AF0F1F088234AF08B
:1011C000EE0FFF1FBB1F661F771F881F91505040F7
:1011D000A9F79E3F510580F00C9406090C94510923
:1011E0005F3FE4F3983ED4F3869577956795B7957E
:1011F000F795E7959F5FC1F7FE2B880F911D969598
:10120000879597F9089599278827089597F99F67F3
:1012100080E870E060E008959FEF80EC089500247E
:101220000A941616170618060906089500240A944B
:1012300012161306140605060895092E0394000CD1
:1012400011F4882352F0BB0F40F4BF2B11F460FF60
:1012500004C06F5F7F4F8F4F9F4F089557FD905889
:10126000440F551F59F05F3F71F04795880F97FB6A
:10127000991F61F09F3F79F0879508951216130624
:101280001406551FF2CF4695F1DF08C01616170653
:101290001806991FF1CF8695710561050894089588
:1012A000E894BB2766277727CB0197F908950E941A
:1012B0009909A59F900DB49F900DA49F800D911D3D
:1012C000112408952F923F924F925F926F927F92D6
:1012D0008F929F92AF92BF92CF92DF92EF92FF9246
:1012E0000F931F93CF93DF93CDB7DEB7CA1BDB0BF2
:1012F0000FB6F894DEBF0FBECDBF09942A88398897
:1013000048885F846E847D848C849B84AA84B9849D
:10131000C884DF80EE80FD800C811B81AA81B981A9
:10132000CE0FD11D0FB6F894DEBF0FBECDBFED01BD
:101330000895A29FB001B39FC001A39F700D811DAE
:101340001124911DB29F700D811D1124911D0895CE
:101350005058BB27AA270E94C0090C941D090E945F
:101360000F0938F00E94160920F039F49F3F19F454
:1013700026F40C940C090EF4E095E7FB0C94060996
:10138000E92F0E942E0958F3BA17620773078407E2
:10139000950720F079F4A6F50C9450090EF4E09529
:1013A0000B2EBA2FA02D0B01B90190010C01CA011F
:1013B000A0011124FF27591B99F0593F50F4503ECA
:1013C00068F11A16F040A22F232F342F4427585FBC
:1013D000F3CF469537952795A795F0405395C9F7D4
:1013E0007EF41F16BA0B620B730B840BBAF091508C
:1013F000A1F0FF0FBB1F661F771F881FC2F70EC02B
:10140000BA0F621F731F841F48F4879577956795FD
:10141000B795F7959E3F08F0B0CF9395880F08F0E9
:101420009927EE0F9795879508950E94290A0C94A5
:101430001D090E94160958F00E940F0940F029F476
:101440005F3F29F00C94060951110C9451090C943A
:101450000C090E942E0968F39923B1F3552391F3E7
:10146000951B550BBB27AA2762177307840738F013
:101470009F5F5F4F220F331F441FAA1FA9F335D070
:101480000E2E3AF0E0E832D091505040E695001C24
:10149000CAF72BD0FE2F29D0660F771F881FBB1FDE
:1014A000261737074807AB07B0E809F0BB0B802DBC
:1014B000BF01FF2793585F4F3AF09E3F510578F0E8
:1014C0000C9406090C9451095F3FE4F3983ED4F361
:1014D000869577956795B795F7959F5FC9F7880FBC
:1014E000911D9695879597F90895E1E0660F771F0E
:1014F000881FBB1F621773078407BA0720F0621B9F
:10150000730B840BBA0BEE1F88F7E09508950E94C9
:101510008E0A6894B1110C94510908950E943609FD
:1015200088F09F5798F0B92F9927B751B0F0E1F0A4
:10153000660F771F881F991F1AF0BA95C9F714C054
:10154000B13091F00E945009B1E008950C94500917
:10155000672F782F8827B85F39F0B93FCCF386958D
:1015600077956795B395D9F73EF4909580957095EA
:1015700061957F4F8F4F9F4F08950E94720808F426
:101580008FEF08950E947208880B990B0895A1E2CD
:101590001A2EAA1BBB1BFD010DC0AA1FBB1FEE1FED
:1015A000FF1FA217B307E407F50720F0A21BB30B38
:1015B000E40BF50B661F771F881F991F1A9469F7B4
:1015C00060957095809590959B01AC01BD01CF0110
:1015D0000895EE0FFF1F0590F491E02D0994F89403
:0215E000FFCF3B
:1015E200000000001E048001AE01AD013132332F34
:1015F200343536783738392D43303D2B4572726F8A
:1016020072210020202043616C63756C61746F72DB
:10161200202020003D20006E616E00696E66006F22
:0416220076660000E8
:00000001FF
